{
  "contractName": "Crowdfunding",
  "abi": [
    {
      "inputs": [],
      "stateMutability": "nonpayable",
      "type": "constructor"
    },
    {
      "stateMutability": "payable",
      "type": "fallback",
      "payable": true
    },
    {
      "inputs": [],
      "name": "author",
      "outputs": [
        {
          "internalType": "address",
          "name": "",
          "type": "address"
        }
      ],
      "stateMutability": "view",
      "type": "function",
      "constant": true
    },
    {
      "inputs": [],
      "name": "closed",
      "outputs": [
        {
          "internalType": "bool",
          "name": "",
          "type": "bool"
        }
      ],
      "stateMutability": "view",
      "type": "function",
      "constant": true
    },
    {
      "inputs": [],
      "name": "endTime",
      "outputs": [
        {
          "internalType": "uint256",
          "name": "",
          "type": "uint256"
        }
      ],
      "stateMutability": "view",
      "type": "function",
      "constant": true
    },
    {
      "inputs": [
        {
          "internalType": "address",
          "name": "",
          "type": "address"
        }
      ],
      "name": "joined",
      "outputs": [
        {
          "internalType": "uint256",
          "name": "",
          "type": "uint256"
        }
      ],
      "stateMutability": "view",
      "type": "function",
      "constant": true
    },
    {
      "inputs": [],
      "name": "price",
      "outputs": [
        {
          "internalType": "uint256",
          "name": "",
          "type": "uint256"
        }
      ],
      "stateMutability": "view",
      "type": "function",
      "constant": true
    },
    {
      "inputs": [],
      "name": "withdrawFund",
      "outputs": [],
      "stateMutability": "nonpayable",
      "type": "function"
    },
    {
      "inputs": [],
      "name": "withdraw",
      "outputs": [],
      "stateMutability": "nonpayable",
      "type": "function"
    }
  ],
  "bytecode": "0x608060405266470de4df8200006003556000600460006101000a81548160ff02191690831515021790555034801561003657600080fd5b50336000806101000a81548173ffffffffffffffffffffffffffffffffffffffff021916908373ffffffffffffffffffffffffffffffffffffffff16021790555062278d004261008691906100ca565b6002819055506100fe565b6000819050919050565b7f4e487b7100000000000000000000000000000000000000000000000000000000600052601160045260246000fd5b60006100d582610091565b91506100e083610091565b92508282019050808211156100f8576100f761009b565b5b92915050565b610c5e8061010d6000396000f3fe6080604052600436106100745760003560e01c8063a035b1fe1161004e578063a035b1fe14610254578063a6c3e6b91461027f578063e07fa3c1146102aa578063f887d019146102c157610075565b80633197cbb6146101e75780633ccfd60b14610212578063597e1fb51461022957610075565b5b600254421080156100935750600460009054906101000a900460ff16155b6100d2576040517f08c379a00000000000000000000000000000000000000000000000000000000081526004016100c99061069f565b60405180910390fd5b6000600160003373ffffffffffffffffffffffffffffffffffffffff1673ffffffffffffffffffffffffffffffffffffffff1681526020019081526020016000205414610154576040517f08c379a000000000000000000000000000000000000000000000000000000000815260040161014b9061070b565b60405180910390fd5b600354341015610199576040517f08c379a000000000000000000000000000000000000000000000000000000000815260040161019090610777565b60405180910390fd5b34600160003373ffffffffffffffffffffffffffffffffffffffff1673ffffffffffffffffffffffffffffffffffffffff168152602001908152602001600020819055506101e56102fe565b005b3480156101f357600080fd5b506101fc610344565b60405161020991906107b0565b60405180910390f35b34801561021e57600080fd5b5061022761034a565b005b34801561023557600080fd5b5061023e6104b0565b60405161024b91906107e6565b60405180910390f35b34801561026057600080fd5b506102696104c3565b60405161027691906107b0565b60405180910390f35b34801561028b57600080fd5b506102946104c9565b6040516102a19190610842565b60405180910390f35b3480156102b657600080fd5b506102bf6104ed565b005b3480156102cd57600080fd5b506102e860048036038101906102e3919061088e565b61062a565b6040516102f591906107b0565b60405180910390f35b600066071afd498d0000670de0b6b3a76400004761031c9190610919565b610326919061094a565b90508066470de4df82000061033b919061098c565b60038190555050565b60025481565b600254421161038e576040517f08c379a000000000000000000000000000000000000000000000000000000000815260040161038590610a0c565b60405180910390fd5b600460009054906101000a900460ff16156103de576040517f08c379a00000000000000000000000000000000000000000000000000000000081526004016103d590610a9e565b60405180910390fd5b47678ac7230489e8000011610428576040517f08c379a000000000000000000000000000000000000000000000000000000000815260040161041f90610b30565b60405180910390fd5b3373ffffffffffffffffffffffffffffffffffffffff166108fc600160003373ffffffffffffffffffffffffffffffffffffffff1673ffffffffffffffffffffffffffffffffffffffff168152602001908152602001600020549081150290604051600060405180830381858888f193505050501580156104ad573d6000803e3d6000fd5b50565b600460009054906101000a900460ff1681565b60035481565b60008054906101000a900473ffffffffffffffffffffffffffffffffffffffff1681565b60008054906101000a900473ffffffffffffffffffffffffffffffffffffffff1673ffffffffffffffffffffffffffffffffffffffff163373ffffffffffffffffffffffffffffffffffffffff161461057b576040517f08c379a000000000000000000000000000000000000000000000000000000000815260040161057290610b9c565b60405180910390fd5b678ac7230489e800004710156105c6576040517f08c379a00000000000000000000000000000000000000000000000000000000081526004016105bd90610c08565b60405180910390fd5b6001600460006101000a81548160ff0219169083151502179055503373ffffffffffffffffffffffffffffffffffffffff166108fc479081150290604051600060405180830381858888f19350505050158015610627573d6000803e3d6000fd5b50565b60016020528060005260406000206000915090505481565b600082825260208201905092915050565b7fe4bc97e7adb9e5b7b2e7bb93e69d9f0000000000000000000000000000000000600082015250565b6000610689600f83610642565b915061069482610653565b602082019050919050565b600060208201905081810360008301526106b88161067c565b9050919050565b7fe4bda0e5b7b2e7bb8fe58f82e4b88ee8bf87e4bc97e7adb90000000000000000600082015250565b60006106f5601883610642565b9150610700826106bf565b602082019050919050565b60006020820190508181036000830152610724816106e8565b9050919050565b7fe587bae4bbb7e5a4aae4bd8ee4ba860000000000000000000000000000000000600082015250565b6000610761600f83610642565b915061076c8261072b565b602082019050919050565b6000602082019050818103600083015261079081610754565b9050919050565b6000819050919050565b6107aa81610797565b82525050565b60006020820190506107c560008301846107a1565b92915050565b60008115159050919050565b6107e0816107cb565b82525050565b60006020820190506107fb60008301846107d7565b92915050565b600073ffffffffffffffffffffffffffffffffffffffff82169050919050565b600061082c82610801565b9050919050565b61083c81610821565b82525050565b60006020820190506108576000830184610833565b92915050565b600080fd5b61086b81610821565b811461087657600080fd5b50565b60008135905061088881610862565b92915050565b6000602082840312156108a4576108a361085d565b5b60006108b284828501610879565b91505092915050565b7f4e487b7100000000000000000000000000000000000000000000000000000000600052601260045260246000fd5b7f4e487b7100000000000000000000000000000000000000000000000000000000600052601160045260246000fd5b600061092482610797565b915061092f83610797565b92508261093f5761093e6108bb565b5b828204905092915050565b600061095582610797565b915061096083610797565b925082820261096e81610797565b91508282048414831517610985576109846108ea565b5b5092915050565b600061099782610797565b91506109a283610797565b92508282019050808211156109ba576109b96108ea565b5b92915050565b7fe8bf98e69caae588b0e4bc97e7adb9e7bb93e69d9fe697b6e997b40000000000600082015250565b60006109f6601b83610642565b9150610a01826109c0565b602082019050919050565b60006020820190508181036000830152610a25816109e9565b9050919050565b7fe4bc97e7adb9e8bebee6a087efbc8ce4bc97e7adb9e8b584e98791e5b7b2e68f60008201527f90e58f9600000000000000000000000000000000000000000000000000000000602082015250565b6000610a88602483610642565b9150610a9382610a2c565b604082019050919050565b60006020820190508181036000830152610ab781610a7b565b9050919050565b7fe4bc97e7adb9e8bebee6a087efbc8ce4bda0e6b2a1e6b395e68f90e58f96e8b560008201527f84e9879100000000000000000000000000000000000000000000000000000000602082015250565b6000610b1a602483610642565b9150610b2582610abe565b604082019050919050565b60006020820190508181036000830152610b4981610b0d565b9050919050565b7fe4bda0e4b88de698afe4bd9ce880850000000000000000000000000000000000600082015250565b6000610b86600f83610642565b9150610b9182610b50565b602082019050919050565b60006020820190508181036000830152610bb581610b79565b9050919050565b7fe69caae8bebee588b0e4bc97e7adb9e79baee6a0870000000000000000000000600082015250565b6000610bf2601583610642565b9150610bfd82610bbc565b602082019050919050565b60006020820190508181036000830152610c2181610be5565b905091905056fea264697066735822122084ca909ac27c93a1171e124bb9ff2433c64d5f1dadf9fffd70d62e57c60b6fb364736f6c63430008110033",
  "immutableReferences": {},
  "source": "pragma solidity >=0.8.17;\r\n\r\n/**\r\n    \r\n */\r\n\r\ncontract Crowdfunding {\r\n    // \r\n    address public author;\r\n\r\n    // \r\n    mapping(address => uint256) public joined;\r\n\r\n    // \r\n    uint256 constant Target = 10 ether;\r\n\r\n    // \r\n    uint256 public endTime;\r\n\r\n    // \r\n    uint256 public price = 0.02 ether;\r\n\r\n    // \r\n    bool public closed = false;\r\n\r\n    // \r\n    constructor() public {\r\n        author = msg.sender;\r\n        endTime = block.timestamp + 30 days;\r\n    }\r\n\r\n    // \r\n    function updatePrice() internal {\r\n        uint256 rise = (address(this).balance / 1 ether) * 0.002 ether;\r\n        price = 0.02 ether + rise;\r\n    }\r\n\r\n    //  \r\n    fallback() external payable {\r\n        require(block.timestamp < endTime && !closed, unicode\"\");\r\n        require(joined[msg.sender] == 0, unicode\"\");\r\n\r\n        require(msg.value >= price, unicode\"\");\r\n        joined[msg.sender] = msg.value;\r\n\r\n        updatePrice();\r\n    }\r\n\r\n    // \r\n    function withdrawFund() external {\r\n        require(msg.sender == author, unicode\"\");\r\n        require(address(this).balance >= Target, unicode\"\");\r\n        closed = true;\r\n        payable(msg.sender).transfer(address(this).balance);\r\n    }\r\n\r\n    // \r\n    function withdraw() external {\r\n        require(block.timestamp > endTime, unicode\"\");\r\n        require(!closed, unicode\"\");\r\n        require(\r\n            Target > address(this).balance,\r\n            unicode\"\"\r\n        );\r\n\r\n        payable(msg.sender).transfer(joined[msg.sender]);\r\n    }\r\n}\r\n",
  "sourcePath": "C:\\Users\\pc\\Desktop\\DAO\\dao\\contracts\\Crowdfunding.sol",
  "compiler": {
    "name": "solc",
    "version": "0.8.17+commit.8df45f5f.Emscripten.clang"
  },
  "schemaVersion": "3.4.11",
  "updatedAt": "2022-12-06T08:30:13.569Z",
  "networkType": "ethereum",
  "devdoc": {
    "kind": "dev",
    "methods": {},
    "version": 1
  },
  "userdoc": {
    "kind": "user",
    "methods": {},
    "notice": "",
    "version": 1
  }
}