{
  "contractName": "Election",
  "abi": [
    {
      "constant": true,
      "inputs": [],
      "name": "VoteEventCounts",
      "outputs": [
        {
          "name": "",
          "type": "uint256"
        }
      ],
      "payable": false,
      "stateMutability": "view",
      "type": "function"
    },
    {
      "constant": true,
      "inputs": [
        {
          "name": "",
          "type": "uint256"
        }
      ],
      "name": "voteEvents",
      "outputs": [
        {
          "name": "id",
          "type": "uint256"
        },
        {
          "name": "name",
          "type": "string"
        },
        {
          "name": "voteCount_yes",
          "type": "uint256"
        },
        {
          "name": "voteCount_no",
          "type": "uint256"
        }
      ],
      "payable": false,
      "stateMutability": "view",
      "type": "function"
    },
    {
      "constant": true,
      "inputs": [],
      "name": "candidate",
      "outputs": [
        {
          "name": "",
          "type": "string"
        }
      ],
      "payable": false,
      "stateMutability": "view",
      "type": "function"
    },
    {
      "constant": true,
      "inputs": [
        {
          "name": "",
          "type": "address"
        }
      ],
      "name": "voters",
      "outputs": [
        {
          "name": "",
          "type": "bool"
        }
      ],
      "payable": false,
      "stateMutability": "view",
      "type": "function"
    },
    {
      "constant": true,
      "inputs": [],
      "name": "voteEvent",
      "outputs": [
        {
          "name": "",
          "type": "string"
        }
      ],
      "payable": false,
      "stateMutability": "view",
      "type": "function"
    },
    {
      "inputs": [],
      "payable": false,
      "stateMutability": "nonpayable",
      "type": "constructor"
    },
    {
      "anonymous": false,
      "inputs": [
        {
          "indexed": true,
          "name": "_voteEventId",
          "type": "uint256"
        }
      ],
      "name": "voted",
      "type": "event"
    },
    {
      "constant": false,
      "inputs": [
        {
          "name": "_voteEventId",
          "type": "uint256"
        },
        {
          "name": "_decision",
          "type": "bool"
        }
      ],
      "name": "vote",
      "outputs": [],
      "payable": false,
      "stateMutability": "nonpayable",
      "type": "function"
    }
  ],
  "bytecode": "0x608060405234801561001057600080fd5b5061005e6040805190810160405280600c81526020017fe7bba7e7bbade7949fe5ad9800000000000000000000000000000000000000008152506100b0640100000000026401000000009004565b6100ab6040805190810160405280600c81526020017fe7bb93e69d9fe8bf90e8bdac00000000000000000000000000000000000000008152506100b0640100000000026401000000009004565b6101e3565b600360008154809291906001019190505550608060405190810160405280600354815260200182815260200160008152602001600081525060046000600354815260200190815260200160002060008201518160000155602082015181600101908051906020019061012392919061013e565b50604082015181600201556060820151816003015590505050565b828054600181600116156101000203166002900490600052602060002090601f016020900481019282601f1061017f57805160ff19168380011785556101ad565b828001600101855582156101ad579182015b828111156101ac578251825591602001919060010190610191565b5b5090506101ba91906101be565b5090565b6101e091905b808211156101dc5760008160009055506001016101c4565b5090565b90565b6106da806101f26000396000f300608060405260043610610078576000357c0100000000000000000000000000000000000000000000000000000000900463ffffffff16806317a27fbf1461007d578063642d20ad146100a85780636c8381f814610163578063a3ec138d146101f3578063b3f9acec1461024e578063c9d27afe146102de575b600080fd5b34801561008957600080fd5b50610092610317565b6040518082815260200191505060405180910390f35b3480156100b457600080fd5b506100d36004803603810190808035906020019092919050505061031d565b6040518085815260200180602001848152602001838152602001828103825285818151815260200191508051906020019080838360005b8381101561012557808201518184015260208101905061010a565b50505050905090810190601f1680156101525780820380516001836020036101000a031916815260200191505b509550505050505060405180910390f35b34801561016f57600080fd5b506101786103e5565b6040518080602001828103825283818151815260200191508051906020019080838360005b838110156101b857808201518184015260208101905061019d565b50505050905090810190601f1680156101e55780820380516001836020036101000a031916815260200191505b509250505060405180910390f35b3480156101ff57600080fd5b50610234600480360381019080803573ffffffffffffffffffffffffffffffffffffffff169060200190929190505050610483565b604051808215151515815260200191505060405180910390f35b34801561025a57600080fd5b506102636104a3565b6040518080602001828103825283818151815260200191508051906020019080838360005b838110156102a3578082015181840152602081019050610288565b50505050905090810190601f1680156102d05780820380516001836020036101000a031916815260200191505b509250505060405180910390f35b3480156102ea57600080fd5b5061031560048036038101908080359060200190929190803515159060200190929190505050610541565b005b60035481565b6004602052806000526040600020600091509050806000015490806001018054600181600116156101000203166002900480601f0160208091040260200160405190810160405280929190818152602001828054600181600116156101000203166002900480156103cf5780601f106103a4576101008083540402835291602001916103cf565b820191906000526020600020905b8154815290600101906020018083116103b257829003601f168201915b5050505050908060020154908060030154905084565b60008054600181600116156101000203166002900480601f01602080910402602001604051908101604052809291908181526020018280546001816001161561010002031660029004801561047b5780601f106104505761010080835404028352916020019161047b565b820191906000526020600020905b81548152906001019060200180831161045e57829003601f168201915b505050505081565b60016020528060005260406000206000915054906101000a900460ff1681565b60028054600181600116156101000203166002900480601f0160208091040260200160405190810160405280929190818152602001828054600181600116156101000203166002900480156105395780601f1061050e57610100808354040283529160200191610539565b820191906000526020600020905b81548152906001019060200180831161051c57829003601f168201915b505050505081565b60008211801561055357506003548211155b15156105c7576040517f08c379a00000000000000000000000000000000000000000000000000000000081526004018080602001828103825260048152602001807f404040400000000000000000000000000000000000000000000000000000000081525060200191505060405180910390fd5b60018060003373ffffffffffffffffffffffffffffffffffffffff1673ffffffffffffffffffffffffffffffffffffffff16815260200190815260200160002060006101000a81548160ff02191690831515021790555060011515811515141561065657600460008381526020019081526020016000206002016000815480929190600101919050555061067d565b60046000838152602001908152602001600020600301600081548092919060010191905055505b817f8fbb38ff86a5b319c33b22609be0afce04335d5db18c6bd100767e251d4028cc60405160405180910390a250505600a165627a7a723058204d31ebecfa9925fd72f55f4b323971165d3332db51601083b92d578c6e514a5d0029",
  "source": "pragma solidity ^0.4.24;\r\n\r\n/**\r\n    投票模块\r\n */\r\ncontract Election {\r\n    /**\r\n        成员\r\n     */\r\n    string public candidate; //成员\r\n    mapping(address => bool) public voters; //该地址成员是否投票\r\n    struct Candidate {\r\n        uint256 id;\r\n        string name; //成员名\r\n    }\r\n\r\n    event voted(uint256 indexed _voteEventId); //投票事件\r\n    /**\r\n        事件\r\n     */\r\n    string public voteEvent; //事件\r\n    struct VoteEvent {\r\n        uint256 id;\r\n        string name; //事件名\r\n        uint256 voteCount_yes; //赞成得票数\r\n        uint256 voteCount_no; //不赞成得票数\r\n    }\r\n    uint256 public VoteEventCounts; //事件数同时代表id\r\n    mapping(uint256 => VoteEvent) public voteEvents; //事件映射\r\n\r\n    constructor() public {\r\n        addVoteEvent(\"继续生存\");\r\n        addVoteEvent(\"结束运转\");\r\n    }\r\n\r\n    /**\r\n        添加事件\r\n     */\r\n    function addVoteEvent(string memory _name) private {\r\n        VoteEventCounts++;\r\n        voteEvents[VoteEventCounts] = VoteEvent(VoteEventCounts, _name, 0, 0);\r\n    }\r\n\r\n    /**\r\n        投票\r\n     */\r\n    function vote(uint256 _voteEventId, bool _decision) public {\r\n        // require(!voters[msg.sender], unicode\"你已经投过票辣！\");\r\n        require(_voteEventId > 0 && _voteEventId <= VoteEventCounts, \"@@@@\");\r\n\r\n        voters[msg.sender] = true;\r\n        if (_decision == true) {\r\n            voteEvents[_voteEventId].voteCount_yes++;\r\n        } else {\r\n            voteEvents[_voteEventId].voteCount_no++;\r\n        }\r\n\r\n        emit voted(_voteEventId); //触发投票事件\r\n    }\r\n}\r\n",
  "sourcePath": "C:\\Users\\pc\\Desktop\\DAO\\dao\\contracts\\Election.sol",
  "compiler": {
    "name": "solc",
    "version": "0.4.26+commit.4563c3fc.Emscripten.clang"
  },
  "schemaVersion": "3.4.11",
  "updatedAt": "2022-12-27T07:23:26.739Z",
  "networkType": "ethereum",
  "devdoc": {
    "methods": {}
  },
  "userdoc": {
    "methods": {
      "vote(uint256,bool)": {
        "notice": "投票\r"
      }
    }
  }
}