{
  "contractName": "Election",
  "abi": [
    {
      "inputs": [],
      "stateMutability": "nonpayable",
      "type": "constructor"
    },
    {
      "anonymous": false,
      "inputs": [
        {
          "indexed": true,
          "internalType": "uint256",
          "name": "_voteEventId",
          "type": "uint256"
        }
      ],
      "name": "voted",
      "type": "event"
    },
    {
      "inputs": [],
      "name": "VoteEventCounts",
      "outputs": [
        {
          "internalType": "uint256",
          "name": "",
          "type": "uint256"
        }
      ],
      "stateMutability": "view",
      "type": "function",
      "constant": true
    },
    {
      "inputs": [],
      "name": "candidate",
      "outputs": [
        {
          "internalType": "string",
          "name": "",
          "type": "string"
        }
      ],
      "stateMutability": "view",
      "type": "function",
      "constant": true
    },
    {
      "inputs": [],
      "name": "voteEvent",
      "outputs": [
        {
          "internalType": "string",
          "name": "",
          "type": "string"
        }
      ],
      "stateMutability": "view",
      "type": "function",
      "constant": true
    },
    {
      "inputs": [
        {
          "internalType": "uint256",
          "name": "",
          "type": "uint256"
        }
      ],
      "name": "voteEvents",
      "outputs": [
        {
          "internalType": "uint256",
          "name": "id",
          "type": "uint256"
        },
        {
          "internalType": "string",
          "name": "name",
          "type": "string"
        },
        {
          "internalType": "uint256",
          "name": "voteCount_yes",
          "type": "uint256"
        },
        {
          "internalType": "uint256",
          "name": "voteCount_no",
          "type": "uint256"
        }
      ],
      "stateMutability": "view",
      "type": "function",
      "constant": true
    },
    {
      "inputs": [
        {
          "internalType": "address",
          "name": "",
          "type": "address"
        }
      ],
      "name": "voters",
      "outputs": [
        {
          "internalType": "bool",
          "name": "",
          "type": "bool"
        }
      ],
      "stateMutability": "view",
      "type": "function",
      "constant": true
    },
    {
      "inputs": [
        {
          "internalType": "uint256",
          "name": "_voteEventId",
          "type": "uint256"
        },
        {
          "internalType": "bool",
          "name": "_decision",
          "type": "bool"
        }
      ],
      "name": "vote",
      "outputs": [],
      "stateMutability": "nonpayable",
      "type": "function"
    }
  ],
  "bytecode": "0x60806040523480156200001157600080fd5b50620000586040518060400160405280600c81526020017fe7bba7e7bbade7949fe5ad980000000000000000000000000000000000000000815250620000a460201b60201c565b6200009e6040518060400160405280600c81526020017fe7bb93e69d9fe8bf90e8bdac0000000000000000000000000000000000000000815250620000a460201b60201c565b62000511565b60036000815480929190620000b9906200016d565b9190505550604051806080016040528060035481526020018281526020016000815260200160008152506004600060035481526020019081526020016000206000820151816000015560208201518160010190816200011991906200042a565b50604082015181600201556060820151816003015590505050565b7f4e487b7100000000000000000000000000000000000000000000000000000000600052601160045260246000fd5b6000819050919050565b60006200017a8262000163565b91507fffffffffffffffffffffffffffffffffffffffffffffffffffffffffffffffff8203620001af57620001ae62000134565b5b600182019050919050565b600081519050919050565b7f4e487b7100000000000000000000000000000000000000000000000000000000600052604160045260246000fd5b7f4e487b7100000000000000000000000000000000000000000000000000000000600052602260045260246000fd5b600060028204905060018216806200023c57607f821691505b602082108103620002525762000251620001f4565b5b50919050565b60008190508160005260206000209050919050565b60006020601f8301049050919050565b600082821b905092915050565b600060088302620002bc7fffffffffffffffffffffffffffffffffffffffffffffffffffffffffffffffff826200027d565b620002c886836200027d565b95508019841693508086168417925050509392505050565b6000819050919050565b60006200030b62000305620002ff8462000163565b620002e0565b62000163565b9050919050565b6000819050919050565b6200032783620002ea565b6200033f620003368262000312565b8484546200028a565b825550505050565b600090565b6200035662000347565b620003638184846200031c565b505050565b5b818110156200038b576200037f6000826200034c565b60018101905062000369565b5050565b601f821115620003da57620003a48162000258565b620003af846200026d565b81016020851015620003bf578190505b620003d7620003ce856200026d565b83018262000368565b50505b505050565b600082821c905092915050565b6000620003ff60001984600802620003df565b1980831691505092915050565b60006200041a8383620003ec565b9150826002028217905092915050565b6200043582620001ba565b67ffffffffffffffff811115620004515762000450620001c5565b5b6200045d825462000223565b6200046a8282856200038f565b600060209050601f831160018114620004a257600084156200048d578287015190505b6200049985826200040c565b86555062000509565b601f198416620004b28662000258565b60005b82811015620004dc57848901518255600182019150602085019450602081019050620004b5565b86831015620004fc5784890151620004f8601f891682620003ec565b8355505b6001600288020188555050505b505050505050565b6108b380620005216000396000f3fe608060405234801561001057600080fd5b50600436106100625760003560e01c806317a27fbf14610067578063642d20ad146100855780636c8381f8146100b8578063a3ec138d146100d6578063b3f9acec14610106578063c9d27afe14610124575b600080fd5b61006f610140565b60405161007c9190610496565b60405180910390f35b61009f600480360381019061009a91906104e2565b610146565b6040516100af949392919061059f565b60405180910390f35b6100c06101fe565b6040516100cd91906105eb565b60405180910390f35b6100f060048036038101906100eb919061066b565b61028c565b6040516100fd91906106b3565b60405180910390f35b61010e6102ac565b60405161011b91906105eb565b60405180910390f35b61013e600480360381019061013991906106fa565b61033a565b005b60035481565b600460205280600052604060002060009150905080600001549080600101805461016f90610769565b80601f016020809104026020016040519081016040528092919081815260200182805461019b90610769565b80156101e85780601f106101bd576101008083540402835291602001916101e8565b820191906000526020600020905b8154815290600101906020018083116101cb57829003601f168201915b5050505050908060020154908060030154905084565b6000805461020b90610769565b80601f016020809104026020016040519081016040528092919081815260200182805461023790610769565b80156102845780601f1061025957610100808354040283529160200191610284565b820191906000526020600020905b81548152906001019060200180831161026757829003601f168201915b505050505081565b60016020528060005260406000206000915054906101000a900460ff1681565b600280546102b990610769565b80601f01602080910402602001604051908101604052809291908181526020018280546102e590610769565b80156103325780601f1061030757610100808354040283529160200191610332565b820191906000526020600020905b81548152906001019060200180831161031557829003601f168201915b505050505081565b60008211801561034c57506003548211155b61038b576040517f08c379a0000000000000000000000000000000000000000000000000000000008152600401610382906107e6565b60405180910390fd5b60018060003373ffffffffffffffffffffffffffffffffffffffff1673ffffffffffffffffffffffffffffffffffffffff16815260200190815260200160002060006101000a81548160ff021916908315150217905550600115158115150361041f5760046000838152602001908152602001600020600201600081548092919061041590610835565b919050555061044c565b60046000838152602001908152602001600020600301600081548092919061044690610835565b91905055505b817f8fbb38ff86a5b319c33b22609be0afce04335d5db18c6bd100767e251d4028cc60405160405180910390a25050565b6000819050919050565b6104908161047d565b82525050565b60006020820190506104ab6000830184610487565b92915050565b600080fd5b6104bf8161047d565b81146104ca57600080fd5b50565b6000813590506104dc816104b6565b92915050565b6000602082840312156104f8576104f76104b1565b5b6000610506848285016104cd565b91505092915050565b600081519050919050565b600082825260208201905092915050565b60005b8381101561054957808201518184015260208101905061052e565b60008484015250505050565b6000601f19601f8301169050919050565b60006105718261050f565b61057b818561051a565b935061058b81856020860161052b565b61059481610555565b840191505092915050565b60006080820190506105b46000830187610487565b81810360208301526105c68186610566565b90506105d56040830185610487565b6105e26060830184610487565b95945050505050565b600060208201905081810360008301526106058184610566565b905092915050565b600073ffffffffffffffffffffffffffffffffffffffff82169050919050565b60006106388261060d565b9050919050565b6106488161062d565b811461065357600080fd5b50565b6000813590506106658161063f565b92915050565b600060208284031215610681576106806104b1565b5b600061068f84828501610656565b91505092915050565b60008115159050919050565b6106ad81610698565b82525050565b60006020820190506106c860008301846106a4565b92915050565b6106d781610698565b81146106e257600080fd5b50565b6000813590506106f4816106ce565b92915050565b60008060408385031215610711576107106104b1565b5b600061071f858286016104cd565b9250506020610730858286016106e5565b9150509250929050565b7f4e487b7100000000000000000000000000000000000000000000000000000000600052602260045260246000fd5b6000600282049050600182168061078157607f821691505b6020821081036107945761079361073a565b5b50919050565b7f4040404000000000000000000000000000000000000000000000000000000000600082015250565b60006107d060048361051a565b91506107db8261079a565b602082019050919050565b600060208201905081810360008301526107ff816107c3565b9050919050565b7f4e487b7100000000000000000000000000000000000000000000000000000000600052601160045260246000fd5b60006108408261047d565b91507fffffffffffffffffffffffffffffffffffffffffffffffffffffffffffffffff820361087257610871610806565b5b60018201905091905056fea2646970667358221220f26ad2a6810683d94d9b9f3b2f6fa67d773942a341741c19e2dd0ebaf1e9be2e64736f6c63430008110033",
  "immutableReferences": {},
  "source": "pragma solidity >=0.8.17;\r\n\r\n/**\r\n    \r\n */\r\ncontract Election {\r\n    /**\r\n        \r\n     */\r\n    string public candidate; //\r\n    mapping(address => bool) public voters; //\r\n    struct Candidate {\r\n        uint256 id;\r\n        string name; //\r\n    }\r\n\r\n    event voted(uint256 indexed _voteEventId); //\r\n    /**\r\n        \r\n     */\r\n    string public voteEvent; //\r\n    struct VoteEvent {\r\n        uint256 id;\r\n        string name; //\r\n        uint256 voteCount_yes; //\r\n        uint256 voteCount_no; //\r\n    }\r\n    uint256 public VoteEventCounts; //id\r\n    mapping(uint256 => VoteEvent) public voteEvents; //\r\n\r\n    constructor() public {\r\n        addVoteEvent(unicode\"\");\r\n        addVoteEvent(unicode\"\");\r\n    }\r\n\r\n    /**\r\n        \r\n     */\r\n    function addVoteEvent(string memory _name) private {\r\n        VoteEventCounts++;\r\n        voteEvents[VoteEventCounts] = VoteEvent(VoteEventCounts, _name, 0, 0);\r\n    }\r\n\r\n    /**\r\n        \r\n     */\r\n    function vote(uint256 _voteEventId, bool _decision) public {\r\n        // require(!voters[msg.sender], unicode\"\");\r\n        require(_voteEventId > 0 && _voteEventId <= VoteEventCounts, \"@@@@\");\r\n\r\n        voters[msg.sender] = true;\r\n        if (_decision == true) {\r\n            voteEvents[_voteEventId].voteCount_yes++;\r\n        } else {\r\n            voteEvents[_voteEventId].voteCount_no++;\r\n        }\r\n\r\n        emit voted(_voteEventId); //\r\n    }\r\n}\r\n",
  "sourcePath": "C:\\Users\\pc\\Desktop\\DAO\\dao\\contracts\\Election.sol",
  "compiler": {
    "name": "solc",
    "version": "0.8.17+commit.8df45f5f.Emscripten.clang"
  },
  "schemaVersion": "3.4.11",
  "updatedAt": "2022-12-11T07:13:37.130Z",
  "networkType": "ethereum",
  "devdoc": {
    "kind": "dev",
    "methods": {},
    "version": 1
  },
  "userdoc": {
    "kind": "user",
    "methods": {
      "candidate()": {
        "notice": ""
      },
      "vote(uint256,bool)": {
        "notice": ""
      },
      "voteEvent()": {
        "notice": ""
      }
    },
    "notice": "",
    "version": 1
  }
}