{
  "contractName": "Election",
  "abi": [
    {
      "inputs": [],
      "stateMutability": "nonpayable",
      "type": "constructor"
    },
    {
      "anonymous": false,
      "inputs": [
        {
          "indexed": true,
          "internalType": "uint256",
          "name": "_voteEventId",
          "type": "uint256"
        }
      ],
      "name": "voted",
      "type": "event"
    },
    {
      "inputs": [],
      "name": "VoteEventCounts",
      "outputs": [
        {
          "internalType": "uint256",
          "name": "",
          "type": "uint256"
        }
      ],
      "stateMutability": "view",
      "type": "function",
      "constant": true
    },
    {
      "inputs": [],
      "name": "candidate",
      "outputs": [
        {
          "internalType": "string",
          "name": "",
          "type": "string"
        }
      ],
      "stateMutability": "view",
      "type": "function",
      "constant": true
    },
    {
      "inputs": [],
      "name": "voteEvent",
      "outputs": [
        {
          "internalType": "string",
          "name": "",
          "type": "string"
        }
      ],
      "stateMutability": "view",
      "type": "function",
      "constant": true
    },
    {
      "inputs": [
        {
          "internalType": "uint256",
          "name": "",
          "type": "uint256"
        }
      ],
      "name": "voteEvents",
      "outputs": [
        {
          "internalType": "uint256",
          "name": "id",
          "type": "uint256"
        },
        {
          "internalType": "string",
          "name": "name",
          "type": "string"
        },
        {
          "internalType": "uint256",
          "name": "voteCount",
          "type": "uint256"
        }
      ],
      "stateMutability": "view",
      "type": "function",
      "constant": true
    },
    {
      "inputs": [
        {
          "internalType": "address",
          "name": "",
          "type": "address"
        }
      ],
      "name": "voters",
      "outputs": [
        {
          "internalType": "bool",
          "name": "",
          "type": "bool"
        }
      ],
      "stateMutability": "view",
      "type": "function",
      "constant": true
    },
    {
      "inputs": [
        {
          "internalType": "uint256",
          "name": "_voteEventId",
          "type": "uint256"
        }
      ],
      "name": "vote",
      "outputs": [],
      "stateMutability": "nonpayable",
      "type": "function"
    }
  ],
  "bytecode": "0x60806040523480156200001157600080fd5b50620000586040518060400160405280600c81526020017fe7bba7e7bbade7949fe5ad980000000000000000000000000000000000000000815250620000a460201b60201c565b6200009e6040518060400160405280600c81526020017fe7bb93e69d9fe8bf90e8bdac0000000000000000000000000000000000000000815250620000a460201b60201c565b62000500565b60036000815480929190620000b9906200015c565b919050555060405180606001604052806003548152602001828152602001600081525060046000600354815260200190815260200160002060008201518160000155602082015181600101908162000112919062000419565b506040820151816002015590505050565b7f4e487b7100000000000000000000000000000000000000000000000000000000600052601160045260246000fd5b6000819050919050565b6000620001698262000152565b91507fffffffffffffffffffffffffffffffffffffffffffffffffffffffffffffffff82036200019e576200019d62000123565b5b600182019050919050565b600081519050919050565b7f4e487b7100000000000000000000000000000000000000000000000000000000600052604160045260246000fd5b7f4e487b7100000000000000000000000000000000000000000000000000000000600052602260045260246000fd5b600060028204905060018216806200022b57607f821691505b602082108103620002415762000240620001e3565b5b50919050565b60008190508160005260206000209050919050565b60006020601f8301049050919050565b600082821b905092915050565b600060088302620002ab7fffffffffffffffffffffffffffffffffffffffffffffffffffffffffffffffff826200026c565b620002b786836200026c565b95508019841693508086168417925050509392505050565b6000819050919050565b6000620002fa620002f4620002ee8462000152565b620002cf565b62000152565b9050919050565b6000819050919050565b6200031683620002d9565b6200032e620003258262000301565b84845462000279565b825550505050565b600090565b6200034562000336565b620003528184846200030b565b505050565b5b818110156200037a576200036e6000826200033b565b60018101905062000358565b5050565b601f821115620003c957620003938162000247565b6200039e846200025c565b81016020851015620003ae578190505b620003c6620003bd856200025c565b83018262000357565b50505b505050565b600082821c905092915050565b6000620003ee60001984600802620003ce565b1980831691505092915050565b6000620004098383620003db565b9150826002028217905092915050565b6200042482620001a9565b67ffffffffffffffff81111562000440576200043f620001b4565b5b6200044c825462000212565b620004598282856200037e565b600060209050601f8311600181146200049157600084156200047c578287015190505b620004888582620003fb565b865550620004f8565b601f198416620004a18662000247565b60005b82811015620004cb57848901518255600182019150602085019450602081019050620004a4565b86831015620004eb5784890151620004e7601f891682620003db565b8355505b6001600288020188555050505b505050505050565b6107f380620005106000396000f3fe608060405234801561001057600080fd5b50600436106100625760003560e01c80630121b93f1461006757806317a27fbf14610083578063642d20ad146100a15780636c8381f8146100d3578063a3ec138d146100f1578063b3f9acec14610121575b600080fd5b610081600480360381019061007c9190610472565b61013f565b005b61008b610243565b60405161009891906104ae565b60405180910390f35b6100bb60048036038101906100b69190610472565b610249565b6040516100ca93929190610559565b60405180910390f35b6100db6102fb565b6040516100e89190610597565b60405180910390f35b61010b60048036038101906101069190610617565b610389565b604051610118919061065f565b60405180910390f35b6101296103a9565b6040516101369190610597565b60405180910390f35b60008111801561015157506003548111155b610190576040517f08c379a0000000000000000000000000000000000000000000000000000000008152600401610187906106c6565b60405180910390fd5b60018060003373ffffffffffffffffffffffffffffffffffffffff1673ffffffffffffffffffffffffffffffffffffffff16815260200190815260200160002060006101000a81548160ff02191690831515021790555060046000828152602001908152602001600020600201600081548092919061020e90610715565b9190505550807f8fbb38ff86a5b319c33b22609be0afce04335d5db18c6bd100767e251d4028cc60405160405180910390a250565b60035481565b60046020528060005260406000206000915090508060000154908060010180546102729061078c565b80601f016020809104026020016040519081016040528092919081815260200182805461029e9061078c565b80156102eb5780601f106102c0576101008083540402835291602001916102eb565b820191906000526020600020905b8154815290600101906020018083116102ce57829003601f168201915b5050505050908060020154905083565b600080546103089061078c565b80601f01602080910402602001604051908101604052809291908181526020018280546103349061078c565b80156103815780601f1061035657610100808354040283529160200191610381565b820191906000526020600020905b81548152906001019060200180831161036457829003601f168201915b505050505081565b60016020528060005260406000206000915054906101000a900460ff1681565b600280546103b69061078c565b80601f01602080910402602001604051908101604052809291908181526020018280546103e29061078c565b801561042f5780601f106104045761010080835404028352916020019161042f565b820191906000526020600020905b81548152906001019060200180831161041257829003601f168201915b505050505081565b600080fd5b6000819050919050565b61044f8161043c565b811461045a57600080fd5b50565b60008135905061046c81610446565b92915050565b60006020828403121561048857610487610437565b5b60006104968482850161045d565b91505092915050565b6104a88161043c565b82525050565b60006020820190506104c3600083018461049f565b92915050565b600081519050919050565b600082825260208201905092915050565b60005b838110156105035780820151818401526020810190506104e8565b60008484015250505050565b6000601f19601f8301169050919050565b600061052b826104c9565b61053581856104d4565b93506105458185602086016104e5565b61054e8161050f565b840191505092915050565b600060608201905061056e600083018661049f565b81810360208301526105808185610520565b905061058f604083018461049f565b949350505050565b600060208201905081810360008301526105b18184610520565b905092915050565b600073ffffffffffffffffffffffffffffffffffffffff82169050919050565b60006105e4826105b9565b9050919050565b6105f4816105d9565b81146105ff57600080fd5b50565b600081359050610611816105eb565b92915050565b60006020828403121561062d5761062c610437565b5b600061063b84828501610602565b91505092915050565b60008115159050919050565b61065981610644565b82525050565b60006020820190506106746000830184610650565b92915050565b7f4040404000000000000000000000000000000000000000000000000000000000600082015250565b60006106b06004836104d4565b91506106bb8261067a565b602082019050919050565b600060208201905081810360008301526106df816106a3565b9050919050565b7f4e487b7100000000000000000000000000000000000000000000000000000000600052601160045260246000fd5b60006107208261043c565b91507fffffffffffffffffffffffffffffffffffffffffffffffffffffffffffffffff8203610752576107516106e6565b5b600182019050919050565b7f4e487b7100000000000000000000000000000000000000000000000000000000600052602260045260246000fd5b600060028204905060018216806107a457607f821691505b6020821081036107b7576107b661075d565b5b5091905056fea26469706673582212205b3db56919c097b68b605bdb5534518b711520c3c5f1cb3cb99977d5a513489464736f6c63430008110033",
  "immutableReferences": {},
  "source": "pragma solidity >=0.8.17;\r\n\r\n/**\r\n    \r\n */\r\ncontract Election {\r\n    /**\r\n        \r\n     */\r\n    string public candidate; //\r\n    mapping(address => bool) public voters; //\r\n    struct Candidate {\r\n        uint256 id;\r\n        string name; //\r\n    }\r\n\r\n    event voted(uint256 indexed _voteEventId); //\r\n    /**\r\n        \r\n     */\r\n    string public voteEvent; //\r\n    struct VoteEvent {\r\n        uint256 id;\r\n        string name; //\r\n        uint256 voteCount; //\r\n    }\r\n    uint256 public VoteEventCounts; //id\r\n    mapping(uint256 => VoteEvent) public voteEvents; //\r\n\r\n    constructor() public {\r\n        addVoteEvent(unicode\"\");\r\n        addVoteEvent(unicode\"\");\r\n    }\r\n\r\n    /**\r\n        \r\n     */\r\n    function addVoteEvent(string memory _name) private {\r\n        VoteEventCounts++;\r\n        voteEvents[VoteEventCounts] = VoteEvent(VoteEventCounts, _name, 0);\r\n    }\r\n\r\n    /**\r\n        \r\n     */\r\n    function vote(uint256 _voteEventId) public {\r\n        // require(!voters[msg.sender], unicode\"\");\r\n        require(_voteEventId > 0 && _voteEventId <= VoteEventCounts, \"@@@@\");\r\n\r\n        voters[msg.sender] = true;\r\n        voteEvents[_voteEventId].voteCount++;\r\n\r\n        emit voted(_voteEventId); //\r\n    }\r\n}\r\n",
  "sourcePath": "C:\\Users\\pc\\Desktop\\DAO\\dao\\contracts\\Election.sol",
  "compiler": {
    "name": "solc",
    "version": "0.8.17+commit.8df45f5f.Emscripten.clang"
  },
  "schemaVersion": "3.4.11",
  "updatedAt": "2022-12-08T09:02:06.207Z",
  "networkType": "ethereum",
  "devdoc": {
    "kind": "dev",
    "methods": {},
    "version": 1
  },
  "userdoc": {
    "kind": "user",
    "methods": {
      "candidate()": {
        "notice": ""
      },
      "vote(uint256)": {
        "notice": ""
      },
      "voteEvent()": {
        "notice": ""
      }
    },
    "notice": "",
    "version": 1
  }
}