{
  "contractName": "Faucet",
  "abi": [
    {
      "constant": true,
      "inputs": [],
      "name": "tokenHolder",
      "outputs": [
        {
          "name": "",
          "type": "address"
        }
      ],
      "payable": false,
      "stateMutability": "view",
      "type": "function"
    },
    {
      "constant": true,
      "inputs": [],
      "name": "tokenAmount",
      "outputs": [
        {
          "name": "",
          "type": "uint256"
        }
      ],
      "payable": false,
      "stateMutability": "view",
      "type": "function"
    },
    {
      "inputs": [],
      "payable": false,
      "stateMutability": "nonpayable",
      "type": "constructor"
    },
    {
      "constant": false,
      "inputs": [],
      "name": "claim",
      "outputs": [],
      "payable": false,
      "stateMutability": "nonpayable",
      "type": "function"
    }
  ],
  "bytecode": "0x608060405234801561001057600080fd5b50606460008190555033600160006101000a81548173ffffffffffffffffffffffffffffffffffffffff021916908373ffffffffffffffffffffffffffffffffffffffff1602179055506102a5806100696000396000f300608060405260043610610057576000357c0100000000000000000000000000000000000000000000000000000000900463ffffffff168063420a83e71461005c5780634e71d92d146100b3578063eec7faa1146100ca575b600080fd5b34801561006857600080fd5b506100716100f5565b604051808273ffffffffffffffffffffffffffffffffffffffff1673ffffffffffffffffffffffffffffffffffffffff16815260200191505060405180910390f35b3480156100bf57600080fd5b506100c861011b565b005b3480156100d657600080fd5b506100df610273565b6040518082815260200191505060405180910390f35b600160009054906101000a900473ffffffffffffffffffffffffffffffffffffffff1681565b600160009054906101000a900473ffffffffffffffffffffffffffffffffffffffff1673ffffffffffffffffffffffffffffffffffffffff163373ffffffffffffffffffffffffffffffffffffffff16141515610206576040517f08c379a00000000000000000000000000000000000000000000000000000000081526004018080602001828103825260368152602001807f4f6e6c792074686520746f6b656e20686f6c6465722063616e20636c61696d2081526020017f746f6b656e732066726f6d20746865206661756365740000000000000000000081525060400191505060405180910390fd5b600160009054906101000a900473ffffffffffffffffffffffffffffffffffffffff1673ffffffffffffffffffffffffffffffffffffffff166108fc6000549081150290604051600060405180830381858888f19350505050158015610270573d6000803e3d6000fd5b50565b600054815600a165627a7a723058208e69d21b18ac4886074631ca7dbc3d55cfec456ed15e3098d049abac2d9e11f50029",
  "source": "pragma solidity ^0.4.24;\r\n\r\ncontract Faucet {\r\n    // Define the amount of tokens that will be dispensed by the faucet\r\n    uint256 public tokenAmount;\r\n\r\n    // Define the address that will hold the tokens dispensed by the faucet\r\n    address public tokenHolder;\r\n\r\n    // Constructor function that is called when the contract is deployed\r\n    constructor() public {\r\n        tokenAmount = 100;\r\n        tokenHolder = msg.sender;\r\n    }\r\n\r\n    // Function that allows users to claim tokens from the faucet\r\n    function claim() public {\r\n        // Check if the caller is the token holder\r\n        require(\r\n            msg.sender == tokenHolder,\r\n            \"Only the token holder can claim tokens from the faucet\"\r\n        );\r\n\r\n        // Transfer the tokens to the caller\r\n        tokenHolder.transfer(tokenAmount);\r\n    }\r\n}\r\n",
  "sourcePath": "C:\\Users\\pc\\Desktop\\DAO\\dao\\contracts\\Faucet.sol",
  "compiler": {
    "name": "solc",
    "version": "0.4.26+commit.4563c3fc.Emscripten.clang"
  },
  "schemaVersion": "3.4.11",
  "updatedAt": "2022-12-26T08:12:47.382Z",
  "networkType": "ethereum",
  "devdoc": {
    "methods": {}
  },
  "userdoc": {
    "methods": {}
  }
}